:020000040800F2
:1000000000500020093700085B37000867370008F8
:100010006D370008733700087937000800000000CA
:100020000000000000000000000000007F37000812
:100030008B3700080000000097370008A53700083C
:100040005937000859370008593700085937000850
:100050005937000859370008593700085937000840
:100060005937000859370008593700085937000830
:1000700059370008813800085937000859370008F7
:100080005937000859370008593700085937000810
:100090005937000859370008593700085937000800
:1000A00059370008593700085937000859370008F0
:1000B000911B0008593700085937000859370008C4
:1000C00059370008593700085937000859370008D0
:1000D00059370008593700085937000825380008F3
:1000E0005937000859370008593700080000000048
:1000F0000000000000000000000000000000000000
:0C01000000000000000000005FF808F1A3
:1001100010B5054C237833B9044B13B10448AFF341
:1001200000800123237010BDA80000200000000003
:10013000B444000808B5034B1BB103490348AFF3AF
:10014000008008BD00000000AC000020B44400089E
:10015000034613F8012B002AFBD1181A0138704707
:1001600081F0004102E000BF83F0004330B54FEA68
:1001700041044FEA430594EA050F08BF90EA020FD5
:100180001FBF54EA000C55EA020C7FEA645C7FEA68
:10019000655C00F0E2804FEA5454D4EB5555B8BF8B
:1001A0006D420CDD2C4480EA020281EA030382EAFC
:1001B000000083EA010180EA020281EA0303362D8E
:1001C00088BF30BD11F0004F4FEA01314FF4801C61
:1001D0004CEA113102D0404261EB410113F0004F73
:1001E0004FEA03334CEA133302D0524263EB43032A
:1001F00094EA050F00F0A780A4F10104D5F1200EC8
:100200000DDB02FA0EFC22FA05F2801841F1000122
:1002100003FA0EF2801843FA05F359410EE0A5F1F6
:1002200020050EF1200E012A03FA0EFC28BF4CF027
:10023000020C43FA05F3C01851EBE37101F00045DD
:1002400007D54FF0000EDCF1000C7EEB00006EEBEA
:100250000101B1F5801F1BD3B1F5001F0CD3490874
:100260005FEA30004FEA3C0C04F101044FEA4452CB
:1002700012F5800F80F09A80BCF1004F08BF5FEA52
:10028000500C50F1000041EB045141EA050130BD32
:100290005FEA4C0C404141EB010111F4801FA4F1D5
:1002A0000104E9D191F0000F04BF01460020B1FA2A
:1002B00081F308BF2033A3F10B03B3F120020CDA62
:1002C0000C3208DD02F1140CC2F10C0201FA0CF040
:1002D00021FA02F10CE002F11402D8BFC2F1200CA5
:1002E00001FA02F120FA0CFCDCBF41EA0C0190405B
:1002F000E41AA2BF01EB0451294330BD6FEA0404A4
:100300001F3C1CDA0C340EDC04F11404C4F120028E
:1003100020FA04F001FA02F340EA030021FA04F3A0
:1003200045EA030130BDC4F10C04C4F1200220FAF7
:1003300002F001FA04F340EA0300294630BD21FA35
:1003400004F0294630BD94F0000F83F4801306BFFB
:1003500081F480110134013D4EE77FEA645C18BFEF
:100360007FEA655C29D094EA050F08BF90EA020F86
:1003700005D054EA000C04BF1946104630BD91EA7E
:10038000030F1EBF0021002030BD5FEA545C05D181
:100390004000494128BF41F0004130BD14F58004C0
:1003A0003CBF01F5801130BD01F0004545F0FE4134
:1003B00041F470014FF0000030BD7FEA645C1ABF69
:1003C000194610467FEA655C1CBF0B46024650EAA0
:1003D000013406BF52EA033591EA030F41F40021CC
:1003E00030BD00BF90F0000F04BF0021704730B552
:1003F0004FF4806404F132044FF000054FF0000127
:1004000050E700BF90F0000F04BF0021704730B5E7
:100410004FF4806404F1320410F0004548BF4042BC
:100420004FF000013EE700BF42004FEAE2014FEA11
:1004300031014FEA02701FBF12F07F4393F07F4FEC
:1004400081F06051704792F0000F14BF93F07F4F1E
:10045000704730B54FF4607401F0004521F0004161
:1004600020E700BF50EA010208BF704730B54FF0E7
:1004700000050AE050EA010208BF704730B511F0EC
:10048000004502D5404261EB41014FF4806404F124
:1004900032045FEA915C3FF4DCAE4FF003025FEAA6
:1004A000DC0C18BF03325FEADC0C18BF033202EB2E
:1004B000DC02C2F1200300FA03FC20FA02F001FA88
:1004C00003FE40EA0E0021FA02F11444C1E600BF27
:1004D00070B54FF0FF0C4CF4E06C1CEA11541DBFDA
:1004E0001CEA135594EA0C0F95EA0C0F00F0DEF8A5
:1004F0002C4481EA030621EA4C5123EA4C5350EA8A
:10050000013518BF52EA033541F4801143F48013DA
:1005100038D0A0FB02CE4FF00005E1FB02E506F06B
:100520000042E0FB03E54FF00006E1FB03569CF0C0
:10053000000F18BF4EF0010EA4F1FF04B6F5007FC6
:1005400064F5407404D25FEA4E0E6D4146EB060638
:1005500042EAC62141EA55514FEAC52040EA5E50C1
:100560004FEACE2EB4F1FD0C88BFBCF5E06F1ED86B
:10057000BEF1004F08BF5FEA500E50F1000041EBA2
:10058000045170BD06F0004646EA010140EA02004F
:1005900081EA0301B4EB5C04C2BFD4EB0C0541EA71
:1005A000045170BD41F480114FF0000E013C00F386
:1005B000AB8014F1360FDEBF002001F0004170BDAA
:1005C000C4F10004203C35DA0C341BDC04F11404C3
:1005D000C4F1200500FA05F320FA04F001FA05F24F
:1005E00040EA020001F0004221F0004110EBD3701C
:1005F00021FA04F642EB06015EEA430E08BF20EA48
:10060000D37070BDC4F10C04C4F1200500FA04F3EA
:1006100020FA05F001FA04F240EA020001F000417C
:1006200010EBD37041F100015EEA430E08BF20EAEF
:10063000D37070BDC4F1200500FA05F24EEA020E37
:1006400020FA04F301FA05F243EA020321FA04F066
:1006500001F0004121FA04F220EA020000EBD3701D
:100660005EEA430E08BF20EAD37070BD94F0000F1D
:100670000FD101F00046400041EB010111F4801F51
:1006800008BF013CF7D041EA060195F0000F18BF02
:10069000704703F00046520043EB030313F4801F3E
:1006A00008BF013DF7D043EA0603704794EA0C0FF8
:1006B0000CEA135518BF95EA0C0F0CD050EA41060E
:1006C00018BF52EA4306D1D181EA030101F000418B
:1006D0004FF0000070BD50EA410606BF10461946B3
:1006E00052EA430619D094EA0C0F02D150EA0136BF
:1006F00013D195EA0C0F05D152EA03361CBF104600
:1007000019460AD181EA030101F0004141F0FE419E
:1007100041F470014FF0000070BD41F0FE4141F422
:10072000780170BD70B54FF0FF0C4CF4E06C1CEA22
:1007300011541DBF1CEA135594EA0C0F95EA0C0FD7
:1007400000F0A7F8A4EB050481EA030E52EA033592
:100750004FEA013100F088804FEA03334FF08055B3
:1007600045EA131343EA12634FEA022245EA1115E0
:1007700045EA10654FEA00260EF000419D4208BF91
:10078000964244F1FD0404F5407402D25B084FEA3E
:100790003202B61A65EB03055B084FEA32024FF4EA
:1007A00080104FF4002CB6EB020E75EB030E22BF47
:1007B000B61A754640EA0C005B084FEA3202B6EB07
:1007C000020E75EB030E22BFB61A754640EA5C00B6
:1007D0005B084FEA3202B6EB020E75EB030E22BF46
:1007E000B61A754640EA9C005B084FEA3202B6EB47
:1007F000020E75EB030E22BFB61A754640EADC0006
:1008000055EA060E18D04FEA051545EA16754FEA67
:1008100006164FEAC30343EA52734FEAC2025FEA85
:100820001C1CC0D111F4801F0BD141EA00014FF014
:1008300000004FF0004CB6E711F4801F04BF0143E5
:100840000020B4F1FD0C88BFBCF5E06F3FF6AFAE01
:10085000B5EB030C04BFB6EB020C5FEA500C50F191
:10086000000041EB045170BD0EF0004E4EEA113114
:1008700014EB5C04C2BFD4EB0C0541EA045170BD1B
:1008800041F480114FF0000E013C90E645EA060E5F
:100890008DE60CEA135594EA0C0F08BF95EA0C0F8D
:1008A0003FF43BAF94EA0C0F0AD150EA01347FF4D5
:1008B00034AF95EA0C0F7FF425AF104619462CE7AC
:1008C00095EA0C0F06D152EA03353FF4FDAE10460F
:1008D000194622E750EA410618BF52EA43067FF460
:1008E000C5AE50EA41047FF40DAF52EA43057FF4F0
:1008F000EBAE12E74FF0FF3C06E000BF4FF0010CFB
:1009000002E000BF4FF0010C4DF804CD4FEA410C5E
:100910007FEA6C5C4FEA430C18BF7FEA6C5C1BD02B
:1009200001B050EA410C0CBF52EA430C91EA030FAC
:1009300002BF90EA020F0020704710F1000F91EA09
:10094000030F58BF994208BF90422CBFD8176FEAD7
:10095000E37040F0010070474FEA410C7FEA6C5CA5
:1009600002D150EA013C07D14FEA430C7FEA6C5CAC
:10097000D6D152EA033CD3D05DF8040B704700BFD8
:100980008446104662468C461946634600E000BF26
:1009900001B5FFF7B7FF002848BF10F1000F01BDF8
:1009A0004DF808EDFFF7F4FF0CBF012000205DF8C3
:1009B00008FB00BF4DF808EDFFF7EAFF34BF012048
:1009C00000205DF808FB00BF4DF808EDFFF7E0FFE1
:1009D00094BF012000205DF808FB00BF4DF808ED32
:1009E000FFF7CEFF94BF012000205DF808FB00BF99
:1009F0004DF808EDFFF7C4FF34BF012000205DF87B
:100A000008FB00BF4FEA410212F5001215D211D5C2
:100A10006FF47873B3EB625212D94FEAC12343F0FB
:100A2000004343EA505311F0004F23FA02F018BF7D
:100A3000404270474FF00000704750EA013005D146
:100A400011F0004008BF6FF0004070474FF0000009
:100A5000704700BF4A0011D212F5001211D20DD515
:100A60006FF47873B3EB62520ED44FEAC12343F0B4
:100A7000004343EA505323FA02F070474FF000005E
:100A8000704750EA013002D14FF0FF3070474FF00D
:100A90000000704780B485B000AF786039600023F3
:100AA000FB607B681B68FB60FB6823F4FF4323F05B
:100AB0007003FB603B689A683B681B6A1A433B689B
:100AC0001B691A433B685B691A433B689B691A437D
:100AD0003B68DB691A433B685B6A1A433B689B6A65
:100AE0001343FA681343FB607B68FA681A603B683B
:100AF000DA687B685A603B681A687B689A603B6872
:100B00005A687B68DA6000BF1437BD4680BC704706
:100B100080B483B000AF78607B6800221A607B6885
:100B200000225A607B6800229A607B680022DA60AB
:100B30007B6800221A617B6800225A617B68002270
:100B40009A617B680022DA617B6800221A627B6806
:100B500000225A627B6800229A6200BF0C37BD46B1
:100B600080BC704780B483B000AF78600B46FB70E8
:100B7000FB78002B06D07B681B6843F001027B6882
:100B80001A6006E07B681A684FF6FE7313407A68B5
:100B9000136000BF0C37BD4680BC704780B483B083
:100BA00000AF78600B467B807A887B685A6000BF14
:100BB0000C37BD4680BC704780B483B000AF78600E
:100BC0007B685B689BB218460C37BD4680BC70479B
:100BD00080B489B000AF786039600023FB610023E6
:100BE0003B610023BB610023FB6000237B6100238A
:100BF000BB603B68DB7803F00F03FB613B68DB788D
:100C000003F01003002B05D03B689B781A46FB6964
:100C10001343FB613B681B88DBB2002B44D07B682D
:100C20001B687B610023BB6138E00122BB6902FACB
:100C300003F3FB603B681B881A46FB6813403B616B
:100C40003A69FB689A4226D1BB699B00FB600F2280
:100C5000FB6802FA03F3BB60BB68DB437A691340AD
:100C60007B61FA69FB6802FA03F37A6913437B61DB
:100C70003B68DB78282B05D10122BB699A407B6851
:100C80005A6108E03B68DB78482B04D10122BB693C
:100C90009A407B681A61BB690133BB61BB69072B52
:100CA000C3D97B687A691A603B681B88FF2B46D9D9
:100CB0007B685B687B610023BB613AE0BB690833FA
:100CC000012202FA03F3FB603B681B881A46FB68AB
:100CD00013403B613A69FB689A4227D1BB699B008C
:100CE000FB600F22FB6802FA03F3BB60BB68DB43C7
:100CF0007A6913407B61FA69FB6802FA03F37A6947
:100D000013437B613B68DB78282B05D1BB69083333
:100D100001229A407B685A613B68DB78482B05D1F9
:100D2000BB69083301229A407B681A61BB690133B1
:100D3000BB61BB69072BC1D97B687A695A6000BF68
:100D40002437BD4680BC704780B485B000AF786062
:100D50000B467B800023FB737B689A687B8813407B
:100D6000002B02D00123FB7301E00023FB73FB7B0C
:100D700018461437BD4680BC704780B483B000AFBE
:100D800078600B467B807A887B681A6100BF0C37DD
:100D9000BD4680BC704780B483B000AF78600B461E
:100DA0007B807A887B685A6100BF0C37BD4680BC67
:100DB0007047000080B485B000AF78600023FB600E
:100DC000094B5B68FB60FB6823F0F003FB60FA688B
:100DD0007B681343FB60044AFB68536000BF143711
:100DE000BD4680BC704700BF0010024080B485B093
:100DF00000AF78600023FB60094B5B68FB60FB6819
:100E000023F4E063FB60FA687B681343FB60044AE9
:100E1000FB68536000BF1437BD4680BC704700BFFD
:100E20000010024080B485B000AF78600023FB6002
:100E3000094B5B68FB60FB6823F46053FB607B68D5
:100E4000DB00FA681343FB60034AFB68536000BF92
:100E50001437BD4680BC70470010024080B487B094
:100E600000AF786000237B6100233B610023FB60BF
:100E70000023BB604C4B5B6803F00C037B617B6918
:100E8000042B07D0082B09D0002B33D17B68474AAD
:100E90001A6033E07B68454A1A602FE0424B5B687A
:100EA00003F470133B61404B5B6803F48033FB60D9
:100EB0003B699B0C02333B61FB68002B06D13B690D
:100EC0003B4A02FB03F27B681A6017E0364B5B6813
:100ED00003F40033002B06D03B69354A02FB03F2D2
:100EE0007B681A600AE03B69304A02FB03F27B68C8
:100EF0001A6003E07B682D4A1A6000BF2A4B5B68CA
:100F000003F0F0037B617B691B097B61294A7B69E4
:100F100013441B78DBB2BB607B681A68BB68DA409D
:100F20007B685A60204B5B6803F4E0637B617B69FC
:100F30001B0A7B611F4A7B6913441B78DBB2BB60D1
:100F40007B685A68BB68DA407B689A60164B5B68BE
:100F500003F460537B617B69DB0A7B61154A7B6923
:100F600013441B78DBB2BB607B685A68BB68DA400D
:100F70007B68DA600C4B5B6803F440437B617B6900
:100F80009B0B7B610C4A7B6913441B78DBB2BB6013
:100F90007B68DA68BB68B2FBF3F27B681A6100BF5A
:100FA0001C37BD4680BC70470010024000127A001A
:100FB00000093D00000000201000002080B483B034
:100FC00000AF78600B46FB70FB78002B06D0094918
:100FD000084B5A697B6813434B6106E00549054B92
:100FE0005A697B68DB4313404B6100BF0C37BD4639
:100FF00080BC70470010024080B483B000AF7860BE
:101000000B46FB70FB78002B06D00949084B9A6908
:101010007B6813438B6106E00549054B9A697B6841
:10102000DB4313408B6100BF0C37BD4680BC70476B
:101030000010024080B483B000AF78600B46FB70B4
:10104000FB78002B06D00949084BDA697B6813430B
:10105000CB6106E00549054BDA697B68DB43134049
:10106000CB6100BF0C37BD4680BC7047001002400A
:1010700080B485B000AF786039600023FB817B6865
:101080001B88FB81FB8903F44153FB813B681A8871
:101090003B685B8813439AB23B689B8813439AB2C0
:1010A0003B68DB8813439AB23B681B8913439AB2AF
:1010B0003B685B8913439AB23B689B8913439AB29E
:1010C0003B68DB8913439AB2FB891343FB817B683E
:1010D000FA891A807B689B8B9BB223F400639AB2D7
:1010E0007B689A833B681A8A7B681A8200BF143730
:1010F000BD4680BC704780B483B000AF78607B6829
:1011000000221A807B6800225A807B6800229A8025
:101110007B680022DA807B6800221A817B680022CB
:101120005A817B6800229A817B680022DA817B6881
:1011300007221A8200BF0C37BD4680BC704780B4BE
:1011400083B000AF78600B46FB70FB78002B08D0B3
:101150007B681B889BB243F040039AB27B681A807D
:1011600007E07B681B889BB223F040039AB27B6840
:101170001A8000BF0C37BD4680BC704780B483B076
:1011800000AF78600B467B807B687A889A8100BFCD
:101190000C37BD4680BC704780B485B000AF786026
:1011A0000B467B800023FB737B681B899AB27B888C
:1011B00013409BB2002B02D00123FB7301E00023FC
:1011C000FB73FB7B18461437BD4680BC704700009C
:1011D00080B58CB000AF786039600023FB620023DB
:1011E000BB6200237B6200233B620023FB617B68C0
:1011F000FB617B681B8A9BB2FB62FA6A4CF6FF7349
:101200001340FB623B68DB881A46FB6A1343FB62B0
:10121000FB6A9AB27B681A827B689B899BB2FB62ED
:10122000FA6A4EF6F3131340FB623B689A883B68F8
:101230001B8913439AB23B685B8913439BB21A46DE
:10124000FB6A1343FB62FB6A9AB27B689A817B68F4
:101250009B8A9BB2FB62FA6A4FF6FF431340FB6224
:101260003B689B891A46FB6A1343FB62FB6A9AB28E
:101270007B689A8207F108031846FFF7EFFDFB69C8
:101280002E4A934202D17B69BB6201E03B69BB629B
:101290007B689B899BB21BB2002B0CDABA6A13469F
:1012A0009B0013449A001A443B681B685B00B2FB26
:1012B000F3F37B620BE0BA6A13469B0013449A0077
:1012C0001A443B681B689B00B2FBF3F37B627B6AAA
:1012D0001B4AA2FB03235B091B01FB62FB6A1B0980
:1012E000642202FB03F37A6AD31A3B627B689B8910
:1012F0009BB21BB2002B0CDA3B6ADB003233104A84
:10130000A2FB03235B0903F00703FA6A1343FB62A2
:101310000BE03B6A1B013233094AA2FB03235B0942
:1013200003F00F03FA6A1343FB62FB6A9AB27B680D
:101330001A8100BF3037BD4680BD00BF0038014074
:101340001F85EB5180B483B000AF78607B684FF4A9
:1013500016521A607B6800229A807B680022DA802D
:101360007B6800221A817B680C225A817B680022EC
:101370009A8100BF0C37BD4680BC704780B483B0F3
:1013800000AF78600B46FB70FB78002B08D07B68C1
:101390009B899BB243F400539AB27B689A8107E021
:1013A0007B689B899BB223F400539AB27B689A8135
:1013B00000BF0C37BD4680BC704780B483B000AF1F
:1013C00078600B467B8013467B707B78002B08D0BF
:1013D0007B689B8A9AB27B8813439AB27B689A8215
:1013E00009E07B689B8A9AB27B88DB439BB21340FF
:1013F0009AB27B689A8200BF0C37BD4680BC7047AA
:1014000080B483B000AF78600B467B807B88C3F3E9
:1014100008039AB27B689A8000BF0C37BD4680BC37
:101420007047000080B586B000AF194B194A1A60AA
:10143000012141F20400FFF7DFFDA0233B800323DD
:10144000BB701823FB703B4619461348FFF7C0FBDF
:101450003B1D1846FFF74FFE4FF44043BB804FF44F
:101460008273FB804FF40073FB8130233B82084B77
:101470001B683A1D11461846FFF7FAFD044B1B681E
:1014800001211846FFF75BFE00BF1837BD4680BD3F
:10149000D00C0020003001400008014080B584B02D
:1014A00000AF0346FB71104BFB6006E0FB685A1E61
:1014B000FA60002B01D1012311E00C4B1B680221C3
:1014C0001846FFF769FE0346002BEFD0074B1B6859
:1014D000FA7992B211461846FFF750FE00231846DB
:1014E0001037BD4680BD00BF00E1F505D00C0020DF
:1014F00080B584B000AF03460A46FB711346BB714A
:101500000023FB730023BB73BB79002B02D1F823AC
:10151000FB7301E0FA23FB73FB7B1846FFF7BEFF6A
:1015200003461A46BB7B1344BB73FB7923F00F03BE
:10153000DBB21846FFF7B2FF03461A46BB7B1344E3
:10154000BB73FB791B01DBB21846FFF7A7FF03460D
:101550001A46BB7B1344BB73BB7B18461037BD4692
:1015600080BD80B485B000AF78600023FB607B68ED
:101570004FF4FA5202FB03F37B6006E000BFFB6806
:101580000133FB607B68013B7B607B68002BF5D1FE
:1015900000BF1437BD4680BC704780B500AFFFF771
:1015A00041FF3220FFF7DDFF3220FFF7DAFF022094
:1015B000FFF7D7FF00213020FFF79AFF00213620E8
:1015C000FFF796FF00210120FFF792FF9620FFF71B
:1015D000C8FF00BF80BD000080B483B000AF00230F
:1015E0007B6007E0084A7B68134400221A707B681E
:1015F00001337B607B68B3F5806FF3DB00BF0C3792
:10160000BD4680BC704700BFD40C002080B584B0BC
:1016100000AF0023FB730023BB600023FB7153E08A
:10162000FB791F2B16D8FB7963F07F03DBB2002117
:101630001846FFF75DFF03461A46FB7B1344FB7316
:1016400000218020FFF754FF03461A46FB7B13441A
:10165000FB7317E0FB7963F07F03DBB2203BDBB267
:1016600000211846FFF744FF03461A46FB7B13444C
:10167000FB7300218820FFF73BFF03461A46FB7BE4
:101680001344FB730023BB7113E0134ABB6813447C
:101690001B78DBB201211846FFF72AFF03461A46E2
:1016A000FB7B1344FB73BB680133BB60BB79013325
:1016B000BB71BB790F2BE8D9FB7B002B01D0012339
:1016C00006E0FB790133FB71FB793F2BA8D900239E
:1016D00018461037BD4680BDD40C002090B484B0AD
:1016E00000AF0446084611461A462346FB710346DE
:1016F000BB710B467B7113463B710023FB738DE07E
:101700000023BB7383E03B79032B7DD801A252F801
:1017100023F000BF251700085F170008A317000873
:10172000C5170008BA79BB7B1B011A447B79DB0122
:101730001344B979BA7B120111447A79D2010A446F
:101740003B498A5CD1B2F879BA7B3A4CC00020445C
:10175000024412780A43D1B2354AD15454E0BA79DE
:10176000BB7B1B011A447B79DB011344B979BA7B3B
:10177000120111447A79D2010A442D498A5CD2B20D
:1017800051B2F879BA7B2B4CC00020440244127845
:1017900052B2D24352B20A4052B2D1B2244AD154C8
:1017A00032E0BA79BB7B1B011A447B79DB0113441D
:1017B000F979BA7B1F48C90001440A4411781C4AD0
:1017C000D15421E0BA79BB7B1B011A447B79DB0140
:1017D0001344B979BA7B120111447A79D2010A44CF
:1017E00013498A5CD2B251B2F879BA7B114CC0006D
:1017F00020440244127852B2D24352B20A4352B247
:10180000D1B20B4AD15400BFBB7B0133BB73BB7B4E
:10181000072B7FF678AFFB7B0133FB73FB7B072B3A
:101820007FF66EAF00BF1037BD4690BC704700BF5B
:10183000D40C0020A845000880B584B000AF7860C3
:10184000084611461A460346FB700B46BB7013460A
:101850007B700023FB7348E07B78032B32D801A216
:1018600052F823F075180008891800089D18000820
:10187000B1180008FB7B7A6813441878BA78F978B5
:101880000023FFF72BFF1DE0FB7B7A6813441878D9
:10189000BA78F9780123FFF721FF13E0FB7B7A6820
:1018A00013441878BA78F9780223FFF717FF09E094
:1018B000FB7B7A6813441878BA78F9780323FFF72A
:1018C0000DFF00BFFB780133FB70FB780F2B09D9AC
:1018D0000023FB70BB780133BB70BB78092B01D1AF
:1018E0000023BB70FB7B0133FB73FB7B7A681344E3
:1018F0001B78002BB0D100BF1037BD4680BD00BFA4
:1019000080B483B000AF0346FB71084997F90730F4
:101910005B09FA7902F01F02012000FA02F241F895
:10192000232000BF0C37BD4680BC704700E100E0BB
:1019300080B483B000AF03463960FB7197F907307C
:10194000002B0BDA0D49FB7903F00F03043B3A68D7
:10195000D2B21201D2B20B441A7609E0084997F9C3
:1019600007303A68D2B21201D2B20B4483F8002396
:1019700000BF0C37BD4680BC704700BF00ED00E0E3
:1019800000E100E080B400AF704B1B78012B1CD14C
:101990006F4B9B6803F00803002B40F0C9806B4B32
:1019A00000221A704FF0804313229A854FF0804333
:1019B0003F221A854FF080424FF080439B8A9BB2B2
:1019C00043F001039BB29382B2E0604B1B78002B83
:1019D00040F0AE805F4B1B78312B5DD85D4B1B78A0
:1019E00003F00103002B06D0594A594B1B6943F001
:1019F0001003136149E0564A554B1B6943F48013A9
:101A00001361544B1B78302B3FD8534B1B685B0042
:101A1000514A1360504B5B685B004F4A53604E4B1A
:101A20009B685B004C4A93604B4BDB685B004A4A07
:101A3000D360474B9B6803F00103002B04D0464B57
:101A40001B680133444A1360414B9B6803F0020357
:101A5000002B04D0404B5B6801333F4A53603C4B42
:101A60009B6803F00403002B04D03B4B9B680133BD
:101A7000394A9360364B9B6803F00803002B04D06F
:101A8000354BDB680133344AD360324B1B7801336A
:101A9000DAB2304B1A704BE02C4B01221A702D4BEE
:101AA00000221A702C4B1B6883F400031A462B4B40
:101AB0001A60294B5B6883F400031A46274B5A606F
:101AC000254B9B6883F400031A46244B9A60224BF3
:101AD000DB6883F40002224B13441A461F4BDA6082
:101AE000204B01221A701C4B00221A601A4B002254
:101AF0005A60194B00229A60174B0022DA60144A90
:101B0000134B1B6943F4801313614FF0804364222D
:101B10009A854FF0804340F69F721A854FF08042BD
:101B20004FF080439B8A9BB243F001039BB29382A8
:101B30004FF080424FF080431B889BB243F001037B
:101B40009BB2138000BFBD4680BC704714000020CC
:101B500000080140D5000020D8000020C40000206B
:101B6000010080FFD400002080B400AF074B1B7839
:101B7000DBB2002B04D0054B00221A70012300E0D9
:101B800000231846BD4680BC704700BFD40000202B
:101B900080B500AF4FF080424FF080431B8A9BB26C
:101BA00023F001039BB21382FFF7ECFE00BF80BD60
:101BB00080B500AF274A274B9B6943F0040393612C
:101BC000254A254B1B6823F470231360224A224BBD
:101BD0001B6843F4403313601F4A1F4B1B6843F4D8
:101BE000804313601B4A1B4BDB6943F00103D36145
:101BF0004FF0804363229A854FF0804340F69F72F6
:101C00001A854FF080424FF080431B889BB243F00F
:101C100008039BB213804FF080424FF080431B8833
:101C20009BB243F004039BB213804FF080424FF00D
:101C300080439B899BB243F001039BB293811C209C
:101C4000FFF75EFE00211C20FFF772FEFFF79AFEF1
:101C500000BF80BD001002400008014080B483B086
:101C600000AF0346FB71084997F907305B09FA7921
:101C700002F01F02012000FA02F241F8232000BF07
:101C80000C37BD4680BC704700E100E080B582B0F3
:101C900000AF124B00221A70114B00221A70002262
:101CA000104B11461970104B114619700F4B11460D
:101CB00019700F4B1A7001210820FFF79DF9482376
:101CC000FB714FF47073BB803B1D19460948FEF74A
:101CD0007FFF00BF0837BD4680BD00BFDC1000207D
:101CE000DD100020E8100020F0100020D4100020AB
:101CF000E0100020000C014080B582B000AF786099
:101D00007B6800221A7040212948FFF71DF803461E
:101D1000002B0CBF01230023DBB219467B681B7824
:101D20005AB24BB213435BB2DAB27B681A708021AD
:101D30001F48FFF709F80346002B01D1022100E0FC
:101D400000217B681B785AB24BB213435BB2DAB204
:101D50007B681A704FF480711548FEF7F5FF034653
:101D6000002B01D1042100E000217B681B785AB2CE
:101D70004BB213435BB2DAB27B681A704FF4007156
:101D80000B48FEF7E1FF0346002B01D1082100E0DC
:101D900000217B681B785AB24BB213435BB2DAB2B4
:101DA0007B681A70012318460837BD4680BD00BF06
:101DB000000C014080B485B000AFF8607B600B463A
:101DC000FB721346BB72FB681B78DBB2002B22D17F
:101DD000FB7A002B1BD0FB685B68591CFA685160CA
:101DE000062B40F28780FB6801221A70BB691B78C2
:101DF000DAB2BB7A1343DBB2BA69194611707A685A
:101E00001278D2B21343DAB27B681A7072E0FB68C0
:101E100000225A606EE0FB681B78DBB2012B2FD1E9
:101E2000FB7A002B0AD0FB685B68591CFA6851608A
:101E3000972B5FD9FB6802221A705BE0FB680022D7
:101E40001A70BB691B78DBB25AB297F90A30DB43D0
:101E50005BB213405BB2DAB2BB691A707B681B7865
:101E6000DBB2BA7A9A4206D0BB691B78DBB2002B90
:101E700040D100233FE07B6800221A7002233AE041
:101E8000FB681B78DBB2022B34D1FB7A002B11D01C
:101E9000FB685B68591CFA685160A12B2AD9FB6862
:101EA00097225A607B681B78DBB2BA7A9A4221D1BA
:101EB000012320E0FB6800221A70BB691B78DBB2AB
:101EC0005AB297F90A30DB435BB213405BB2DAB225
:101ED000BB691A707B681B78DBB2BA7A9A4206D06B
:101EE000BB691B78DBB2002B04D1002303E07B68C5
:101EF00000221A70032318461437BD4680BC704771
:101F000080B582B000AF78607B681B78DBB20C2BA9
:101F100002D100F081F946E07B681B78DBB2062B2A
:101F200002D100F039FD3EE07B681B78DBB2052B67
:101F300002D100F037FD36E07B681B78DBB20A2B5C
:101F400002D100F06FF92EE07B681B78DBB2032B27
:101F500002D100F01BFD26E07B681B78DBB2092B69
:101F600002D100F065F91EE07B681B78DBB20E2B16
:101F700002D100F01DFD16E07B681B78DBB2072B59
:101F800002D100F015FD0EE07B681B78DBB20D2B53
:101F900002D100F00DFD06E07B681B78DBB20F2B51
:101FA00001D100F005FD00BF0837BD4680BD00002F
:101FB00080B584B002AFBB1D1846FFF79DFE0346F7
:101FC000002B00F087800323FB71BB7903F004032F
:101FD000D9B2424B0093424B04224248FFF7EAFE3B
:101FE0000346FB71FB79022B02D100F0A7FC0BE04A
:101FF000FB79012B02D100F0BCFC05E0FB79002B42
:1020000002D13748FFF77CFFBB7903F00803D9B250
:10201000324B0093324B08223348FFF7CBFE034686
:10202000FB71FB79022B02D100F08EFC0BE0FB79F7
:10203000012B02D100F0A3FC05E0FB79002B02D1BB
:102040002748FFF75DFFBB7903F00203D9B2234BAA
:102050000093234B02222548FFF7ACFE0346FB7199
:10206000FB79022B02D100F062FC0BE0FB79012B23
:1020700002D100F077FC05E0FB79002B02D1184873
:10208000FFF73EFFBB7903F00103D9B2134B009376
:10209000134B01221648FFF78DFE0346FB71FB79B7
:1020A000022B02D100F03CFC0BE0FB79012B02D1AA
:1020B00000F051FC05E0FB79002B02D10848FFF746
:1020C0001FFF064B1B78DBB2002B04D1044B002210
:1020D0001A7000E000BF0837BD4680BDDC1000204C
:1020E000DD100020E0100020F0100020D4100020AF
:1020F000E810002080B500AF01214FF48020FEF7EA
:1021000099FF01210920FEF777FF1E4A1D4B5B68EE
:1021100023F4706353601B4A1A4B5B6843F43063CB
:102120005360184A174B5B6823F470435360154A99
:10213000144B5B6843F480435360134B40F6932287
:102140001A81114B00229A810F4A0F4B9B899BB237
:1021500043F4B35343F00C039BB293810A4B002228
:102160001A82094B00229A82074A074B9B899BB22D
:1021700043F400539BB293812720FFF76FFD00BF0C
:1021800080BD00BF000C01400048004080B582B017
:1021900000AF0346FB711F4B1B78F02B33D0FB794C
:1021A000E02B30D0FB79702B02D100F001FC2AE04B
:1021B000FB79692B27D0FB79722B03D1012000F02A
:1021C000F7FF20E0FB797A2B1DD0FB796B2B03D135
:1021D000032000F0EDFF16E0FB79732B03D1022002
:1021E00000F0E6FF0FE0FB79742B03D1022000F032
:1021F000DFFF08E0FB796C2B05D0FB79752B02D152
:10220000002000F0D5FF034AFB79137000BF0837A8
:10221000BD4680BDE800002080B400AF00BFBD46D1
:1022200080BC704780B400AF00BFBD4680BC704723
:1022300080B400AF00BFBD4680BC704780B582B09F
:1022400000AF7860054BDB681A460549786801F0F5
:10225000EFFC00BF0837BD4680BD00BFC4000020B2
:10226000D44400080000000090B583B000AF78604F
:10227000414BD3E900013EA3D3E90023FEF7B8FBAD
:102280000346002B33D03C4BD3E900014FF0000252
:102290003A4BFEF71DF903460C4618462146FEF759
:1022A000B1FB0346364A82FB03125211DB17D41AE4
:1022B000314BD3E900014FF00002304BFEF708F933
:1022C00002460B4610461946FEF79CFB02462C4B75
:1022D00083FB02135911D317CB1A642101FB03F3BB
:1022E000D31A22462749786801F0A2FC39E0224B34
:1022F000D3E900014FF00002204BFEF7E9F8034656
:102300000C4618462146FEF77DFB03461C4A82FB1D
:1023100003125211DB17D31A83EAE374A4EBE374BC
:10232000154BD3E900014FF00002144BFEF7D0F833
:1023300002460B4610461946FEF764FB0246104B58
:1023400083FB02135911D317CB1A642101FB03F34A
:10235000D31A002BB8BF5B4222460B49786801F0C4
:1023600067FC00BF0C37BD4690BD00BFAFF30080D7
:10237000FCA9F1D24D62503FB80C0020000059403A
:102380001F85EB51DC440008E84400080000000011
:10239000B0B584B000AF7860574BDB681846FEF7E5
:1023A00031F804460D46554B1B681846FEF72AF8CF
:1023B00002460B4620462946FDF7D6FE03460C464C
:1023C000184621464FF060424D4BFEF7ABF90346ED
:1023D0000C46184621464FF000024A4BFEF778F8AB
:1023E00003460C46C7E902344FF00002464BD7E9DA
:1023F0000201FEF797F903460C46C7E902343CA3F5
:10240000D3E90023D7E90201FEF7F2FA0346002BD5
:1024100031D04FF000023D4BD7E90201FEF758F8EA
:1024200003460C4618462146FEF7ECFA0346384AA6
:1024300082FB03125211DB17D41A4FF00002334B08
:10244000D7E90201FEF744F802460B46104619464A
:10245000FEF7D8FA02462E4B83FB02135911D3170D
:10246000CB1A642101FB03F3D31A22462949786869
:1024700001F0DEFB37E04FF00002244BD7E9020108
:10248000FEF726F803460C4618462146FEF7BAFA30
:1024900003461F4A82FB03125211DB17D31A83EA49
:1024A000E374A4EBE3744FF00002184BD7E9020188
:1024B000FEF70EF802460B4610461946FEF7A2FA42
:1024C0000246134B83FB02135911D317CB1A642115
:1024D00001FB03F3D31A002BB8BF5B4222460E491F
:1024E000786801F0A5FB00BF1037BD46B0BD00BF46
:1024F000FCA9F1D24D62503FC4000020280000200A
:10250000FFFF6F4100408F400000604000005940D5
:102510001F85EB51DC440008E8440008000000007F
:1025200090B583B000AF7860414BD3E900013EA382
:10253000D3E90023FEF75CFA0346002B33D03C4B73
:10254000D3E900014FF000023A4BFDF7C1FF03460B
:102550000C4618462146FEF755FA0346364A82FBDA
:1025600003125211DB17D41A314BD3E900014FF09B
:102570000002304BFDF7ACFF02460B4610461946F1
:10258000FEF740FA02462C4B83FB02135911D31776
:10259000CB1A642101FB03F3D31A2246274978683A
:1025A00001F046FB39E0224BD3E900014FF0000275
:1025B000204BFDF78DFF03460C4618462146FEF7DB
:1025C00021FA03461C4A82FB03125211DB17D31A6D
:1025D00083EAE374A4EBE374154BD3E900014FF0F5
:1025E0000002144BFDF774FF02460B4610461946D5
:1025F000FEF708FA0246104B83FB02135911D3175A
:10260000CB1A642101FB03F3D31A002BB8BF5B4242
:1026100022460B49786801F00BFB00BF0C37BD4622
:1026200090BD00BFAFF30080FCA9F1D24D62503FD6
:10263000B00C0020000059401F85EB51DC4400081D
:10264000E844000880B483B000AF78600A4B1B7880
:10265000DBB2002B04D07B68084A1068186005E0E4
:102660007B68074A1068186012791A7100BF0C372E
:10267000BD4680BC704700BFC00C0020F444000879
:10268000F84400080000000090B583B000AF786007
:102690001D4BD3E900014FF000021C4BFDF718FF62
:1026A00003460C4618462146FEF7ACF90346184A85
:1026B00082FB03129210DB17D41A134BD3E90001EB
:1026C0000FA3D3E90023FDF703FF02460B46104694
:1026D0001946FEF797F902460E4B83FB02131913B6
:1026E000D317CB1A42F2107101FB03F3D31A22461F
:1026F0000949786801F09CFA00BF0C37BD4690BDCF
:10270000000000000088C3401800002000002440A2
:1027100067666666AD8BDB68004500080000000058
:1027200098B500AF0A4BD3E9000107A3D3E9002312
:10273000FDF71CFD03460C46054A82E8180000BF61
:1027400098BD00BFAFF300802D431CEBE2361A3F6B
:10275000180000200000000098B500AF0A4BD3E934
:10276000000107A3D3E90023FDF7FEFC03460C4656
:10277000054A82E8180000BF98BD00BFAFF3008093
:102780002D431CEBE2361A3F1800002090B583B0B1
:1027900000AF7860074B18CB18462146FEF732F998
:1027A00003461A460449786801F042FA00BF0C3724
:1027B000BD4690BD200000200C45000898B500AF34
:1027C000074BD3E900014FF00002064BFDF7CEFCAA
:1027D00003460C46024A82E8180000BF98BD00BFBD
:1027E000200000200000F03F98B500AF074BD3E970
:1027F00000014FF00002064BFDF7B6FC03460C4605
:10280000024A82E8180000BF98BD00BF20000020E7
:102810000000F03F0000000090B58BB000AF786082
:10282000314B18CBC7E90834304B18CBC7E9063415
:102830002F4B1B681846FDF7E5FD4FF060422D4B0E
:10284000FDF770FF03460C46184621464FF0000284
:10285000294BFDF73DFE03460C46C7E904344FF013
:102860000002264BD7E90401FDF75CFF03460C4646
:10287000C7E90434D7E90623D7E90401FDF728FEA8
:1028800003460C4618462146D7E90823FDF74AFFC0
:1028900003460C46C7E902340FA3D3E90023D7E966
:1028A0000201FDF715FE03460C46184621460CA30F
:1028B000D3E90023FDF75AFC03460C46C7E902346E
:1028C0000B4B1B681A460E49786801F0B1F900BF3E
:1028D0002C37BD4690BD00BF053411363CBD1340BA
:1028E00017D9CEF753534040180000202000002095
:1028F00028000020FFFF6F4100408F400000604033
:102900001045000880B400AF034BDB68034A136036
:1029100000BFBD4680BC7047C400002028000020D6
:1029200080B500AF002000F043FC00BF80BD80B543
:1029300000AF012000F03CFC00BF80BD80B500AFBF
:1029400000F038FD00BF80BD80B500AF022000F070
:102950002FFC00BF80BD80B500AF002000F028FC38
:1029600000BF80BD80B500AF012000F021FC00BF9A
:1029700080BD80B500AFFFF7E1FF00BF80BD80B52F
:1029800000AF022000F014FC00BF80BD80B400AF97
:1029900000BFBD4680BC704780B400AF00BFBD46DD
:1029A00080BC704780B400AF00BFBD4680BC70479C
:1029B00080B400AF00BFBD4680BC704790B585B005
:1029C00004AF0022A349A44800F080F9A34B1A6881
:1029D000531CA2490B601346DB0013449B00A04A22
:1029E0009C18A04B1A68531C9E490B6013469B0011
:1029F00013449B009C4A13449C49184600F024FA57
:102A000002460023029301230193002300931346FF
:102A1000914A9749204600F0ADF9904B1A68531C33
:102A20008E490B601346DB0013449B008C4A9C18B4
:102A30008C4B1A68531C8B490B6013469B00134444
:102A40009B00894A13448B49184600F0FDF9024661
:102A500000230293022301930023009313467E4A2E
:102A60008549204600F086F97C4B1A68531C7B4947
:102A70000B601346DB0013449B00794A9C18794B8A
:102A80001A68531C77490B6013469B0013449B0044
:102A9000754A13447949184600F0D6F902460023D6
:102AA0000293032301930023009313466A4A744957
:102AB000204600F05FF9694B1A68531C67490B60A8
:102AC0001346DB0013449B00654A9C18654B1A684B
:102AD000531C64490B6013469B0013449B00624ADD
:102AE00013446849184600F0AFF9024601230293E7
:102AF000002301930C2300931346574A6249204652
:102B000000F038F9554B1A68531C54490B601346B2
:102B1000DB0013449B00524A9C18524B1A68531C0A
:102B200050490B6013469B0013449B004E4A981873
:102B3000564B574A574900F073F902460023029357
:102B400004230193002300931346434A524920462D
:102B500000F010F9414B1A68531C40490B601346B2
:102B6000DB0013449B003E4A9C183E4B1A68531CE2
:102B70003C490B6013469B0013449B003A4A98184B
:102B8000464B474A474900F04BF90246002302935F
:102B9000052301930023009313462F4A4249204600
:102BA00000F0E8F82D4B1A68531C2C490B601346B3
:102BB000DB0013449B002A4A9C182A4B1A68531CBA
:102BC00028490B6013469B0013449B00264A981823
:102BD000364B374A364900F023F902460023029368
:102BE000062301930023009313461B4A31492046D4
:102BF00000F0C0F8194B1A68531C18490B601346B3
:102C0000DB0013449B00164A9C18164B1A68531C91
:102C100014490B6013469B0013449B00124A134453
:102C20002549184600F010F90246002302930723B5
:102C30000193002300931346074A2049204600F0E1
:102C400099F80749C82000F013F900BF0437BD46C2
:102C500090BD00BF1C450008EC0000202C020020A5
:102C600030020020EC090020F00900202125000896
:102C700024450008692200082C450008912300081B
:102C800034450008452600083C4500088926000810
:102C90005927000821270008444500088D2700080F
:102CA000E9270008BD27000850450008192800083A
:102CB000052900085C4500083D220008644500081D
:102CC00080B400AF00BFBD4680BC704780B485B003
:102CD00000AFF860B9607A60FB6800225A60FB6858
:102CE00000229A60FB68BA681A60FB687A68DA604A
:102CF00000BF1437BD4680BC704780B584B000AFBC
:102D0000786039607B685B68FB60FB68002B21D0D2
:102D1000FB685A693B685A613B68FA681A61FB684C
:102D20005B693A681A61FB683A685A613B689B695B
:102D30009B68184600F0E2F90346002B16D138686C
:102D400000F0DCF90346002B10D03B689B693A6821
:102D50009A600BE07B683A685A607B683A689A60D0
:102D60003B683A685A613B683A681A6100BF10379D
:102D7000BD4680BD80B584B000AFF860B9607A60B0
:102D80003B60FB68002B26D07B68002B25D0FB68BE
:102D900097F8202083F82220FB68BA681A60FB6845
:102DA00000221A61FB687A689A61FB680022DA6186
:102DB000FB683A7E83F82020FB683A7F83F8212065
:102DC000FB6800221A71FB683A689A60F9687868B3
:102DD000FFF793FF02E000BF00E000BF1037BD46E1
:102DE00080BD000080B485B000AFF860B9607A6043
:102DF0003B60FB68BA681A60FB687A685A60FB68D7
:102E00003A689A60FB683A7E1A74FB68034ADA6093
:102E1000FB6818461437BD4680BC7047C12C0008BB
:102E200080B586B002AFF860B9607A603B6000237D
:102E300000933B68BA687968F868FFF7D3FF0346E8
:102E400018461037BD4680BD80B584B002AF7860AB
:102E50003960012300933B68044A04497868FFF70E
:102E6000C1FF034618460837BD4680BDC12C000887
:102E700080B582B000AF78603960164A7B68136015
:102E8000144B1B68144A1360144B00221A703868E4
:102E900000F034F90346002B03D0114A3B6813605D
:102EA00014E0386800F04EF902460D4B1A600C4BE6
:102EB0001B68002B0AD00A4B1B689B69002B05D0AE
:102EC000074B1B689B69064A12689A6000BF083767
:102ED000BD4680BD00110020FC100020F81000202D
:102EE0000411002080B400AF064B1B68002B04D0F7
:102EF000044B1B68013B034A136000BFBD4680BC06
:102F0000704700BFFC10002080B485B000AF78602F
:102F10000023FB7300BFFB7B5A1CFA731A467B68C5
:102F200013441B78002BF6D1FB7B013BDBB2184628
:102F30001437BD4680BC704790B589B000AF6A4B6E
:102F40001B68002B01D00023CAE0684B1B68664A4F
:102F50001360FEF741FB664B1B689B697B617B69D5
:102F60005B685B69FB61FB691B69FB6143F23003D2
:102F70007B6007F1080300221A609A803B1D3B61C9
:102F8000FB691B79DBB2002B05D1FB699B689B6851
:102F90003869984712E0FB691B79DBB2012B06D137
:102FA0003B6954491A460B461B88138006E0FB69AF
:102FB0001B79DBB2022B01D100233B710023FB768E
:102FC0000023BB764A4B1B68FA699A420ED14A4BE2
:102FD0001B78DBB2002B02D10323FB7606E0464BC5
:102FE0001B78DBB2012B01D10323BB76FB6993F87D
:102FF0002230DBB2002B21D1FB691868FB6993F802
:103000002030D9B2FB6993F82130DAB2FB7EFEF7AB
:1030100013FCFB6993F82030DCB2FB691B6818468F
:10302000FFF772FF03462344D9B2FB6993F82130BE
:10303000DAB2BB7E3869FEF7FFFB47E0FB6993F825
:103040002230DBB2012B1BD1FB691868FB6993F8B6
:103050002030D9B2FB6993F82130DAB2FB7EFEF75B
:10306000EBFBFB6993F82030D9B2FB6993F8213070
:10307000DBB20133DAB2BB7E3869FEF7DDFB25E057
:10308000FB6993F82230DBB2022B0DD1FB69186883
:10309000FB6993F82030D9B2FB6993F82130DAB29A
:1030A000FB7EFEF7C9FB11E0FB6993F82230DBB22F
:1030B000032B0BD1FB6993F82030D9B2FB6993F84D
:1030C0002130DAB2BB7E3869FEF7B6FB7B695B68FC
:1030D0005A69FB699A427FF446AFFEF797FA0346B6
:1030E00018462437BD4690BDFC100020001100207A
:1030F000041100206C450008F810002080B483B053
:1031000000AF78607B68002B16D07B681B79DBB240
:10311000012B01D1012310E07B681B79DBB2002B6E
:103120000AD17B689B68002B06D07B689B681B7C60
:10313000002B01D1012300E0002318460C37BD46C7
:1031400080BC704780B584B000AF78607B681B6935
:10315000FB600AE0F868FFF7D1FF0346002B01D0BF
:10316000FB6806E0FB681B69FB60FB68002BF1D184
:103170007B6818461037BD4680BD80B584B000AF6F
:1031800078607B685B69FB600AE0F868FFF7B6FF70
:103190000346002B01D0FB6806E0FB685B69FB601F
:1031A000FB68002BF1D17B6818461037BD4680BD07
:1031B00080B582B000AF0346FB71564B1B78DBB283
:1031C000002B6AD1FB79022B2ED1534B1B681B7944
:1031D000DBB2002B0DD1504B1B689B681B7C002B76
:1031E00003D14C4B01221A7050E04B4B1B689B687B
:1031F0004CE0494B1B681B79DBB2012B46D1464B97
:103200001B68DB69002B41D0434B1B68DB695B68A3
:10321000002B3BD0404B1B68DB699B683E4A136028
:103220003C4B00221A7031E0FB79002B08D13A4B5D
:103230001B681846FFF7A1FF0246374B1A6025E0CE
:10324000FB79012B08D1344B1B681846FFF77AFF36
:103250000246314B1A6019E0FB79032B16D12E4B35
:103260001B689B69DB68002B10D02B4B1B689B688D
:10327000002B04D0284B1B689B68DB689847264BC3
:103280001B689B69DB689B68234A1360224B1B68A1
:103290009B69214A12689A6037E01E4B1B78DBB2AB
:1032A000012B32D1FB79022B03D11A4B00221A7069
:1032B0002BE0FB79002B0FD1174B1B681B79DBB27E
:1032C000002B05D1144B1B689B685B6898471CE07A
:1032D000114B1B681B7918E0FB79012B0FD10E4BAA
:1032E0001B681B79DBB2002B05D10B4B1B689B685D
:1032F0001B68984709E0084B1B681B7905E0FB79C0
:10330000032B02D1034B00221A7000BF0837BD46C1
:1033100080BD00BFF81000200411002080B483B0ED
:1033200000AF03463960FB7197F90730002B0BDAC9
:103330000D49FB7903F00F03043B3A68D2B2120146
:10334000D2B20B441A7609E0084997F907303A6877
:10335000D2B21201D2B20B4483F8002300BF0C3763
:10336000BD4680BC704700BF00ED00E000E100E01A
:1033700080B582B000AF78607B68B3F1807F01D305
:10338000012311E00A4A7B6823F07F43013B53602D
:103390000F214FF0FF30FFF7C1FF054B00229A606D
:1033A000034B07221A60002318460837BD4680BD2C
:1033B00010E000E090B400AF0B4B1B78DBB2012BA8
:1033C00003D1094B00221A7009E0074B01221A7041
:1033D000064A4FF000034FF0000482E8180000BFD7
:1033E000BD4690BC704700BFC00C0020B00C002050
:1033F000B0B5A8B000AFFEF7B7FB0346002B00F056
:1034000016818F4B18CBC7E926348E4B18CBC7E9F2
:1034100024340123C7F88C308B4BDB681846FCF74B
:10342000F1FF04460D46894B1B681846FCF7EAFF7E
:1034300002460B4620462946FCF796FE03460C46FC
:10344000184621464FF06042814BFDF76BF9034669
:103450000C46184621464FF000027E4BFDF738F827
:1034600003460C46C7E920344FF000027A4BD7E9F7
:103470002001FDF757F903460C46C7E92034D7E988
:103480002423D7E92001FDF723F803460C4618460C
:103490002146D7E92623FDF745F903460C466F4A36
:1034A00082E818006E4B1B78DBB2012B40F0BF8026
:1034B0006A4BD3E900014FF000024FF00003FDF723
:1034C00097FA0346002B33D0644BD3E900014FF049
:1034D0000002644BFCF7FCFF03460C4618462146ED
:1034E000FDF790FA0346604A82FB03125211DB1784
:1034F000D41A5A4BD3E900014FF00002594BFCF7A4
:10350000E7FF02460B4610461946FDF77BFA0246D6
:10351000554B83FB02135911D317CB1A642101FBBE
:1035200003F3D31A38462246504900F081FB39E0B4
:103530004A4BD3E900014FF000024A4BFCF7C8FFA9
:1035400003460C4618462146FDF75CFA0346464AF8
:1035500082FB03125211DB17D31A83EAE374A4EB44
:10356000E3743E4BD3E900014FF000023D4BFCF702
:10357000AFFF02460B4610461946FDF743FA0246D6
:10358000394B83FB02135911D317CB1A642101FB6A
:1035900003F3D31A002BB8BF5B42384622463449A6
:1035A00000F046FB3B46184600F0F2FA2B4BD3E9FD
:1035B0000001304B18CB1A462346FDF719FA034693
:1035C000002B16D0254B18CB2A4A82E81800294B2D
:1035D000D3E9000118A3D3E90023FCF779FF0346E0
:1035E0000C4618462146FDF735FA0346C7F88C30DD
:1035F0001DE0204BD3E90001184B18CB1A46234697
:10360000FCF7B2FD03460C4625461C46D7F88C0055
:10361000FCF7E8FE02460B4620462946FDF7E8F98E
:103620000346002B00D102E00D4B00221A7000BFB0
:10363000A037BD46B0BD00BF666666666666E63FFB
:103640001800002020000020C400002028000020D6
:10365000FFFF6F4100408F4000006040B80C002029
:10366000C00C0020000059401F85EB517045000838
:103670008C450008B00C002080B582B000AF8020DF
:10368000FDF798FB0020FDF7CDFB0020FDF7AEFB1A
:1036900000F030F9184B1B68184AA2FB03239B0962
:1036A0001846FFF765FE01210420FDF7A5FC144B29
:1036B00014221A80124B03229A70114B1022DA70D6
:1036C0000F491048FDF784FA00F006FAFDF765FF90
:1036D000FFF774F90120FFF76BFDFEF7D7FAFEF74D
:1036E00009FDFEF765FA0023FB80FFF725FCFB8848
:1036F0000133FB80F9E700BF2C000020D34D62109E
:103700000811002000080140DFF834D0002103E058
:103710000C4B5B58435004310B480C4B42189A42F7
:10372000F6D30B4A02E0002342F8043B094B9A42CD
:10373000F9D300F0ABF800F057FAFFF79DFF7047A0
:1037400000500020E44D000800000020A4000020EC
:10375000A800002060120020FEE780B400AF00BF88
:10376000BD4680BC704780B400AFFEE780B400AFB8
:10377000FEE780B400AFFEE780B400AFFEE780B4A0
:1037800000AF00BFBD4680BC704780B400AF00BF33
:10379000BD4680BC704780B400AF00BFBD4680BC52
:1037A0007047000080B500AF1C4B1B78DBB2002BCC
:1037B0000CBF01230023DBB21A46184B1A70174BBB
:1037C0001B78DBB2002B04D004211548FDF7D5FA95
:1037D00003E004211248FDF7DEFAFFF783FBFEF752
:1037E000E7FBFFF705FE0D4B1B78DBB2002B0CBF90
:1037F00001230023DBB21A46084B1A70074B1B78D3
:10380000DBB2002B04D004210548FDF7B6FA03E033
:1038100004210348FDF7BFFA00BF80BDC10C0020A2
:103820000008014080B582B000AF144B1B889BB2EA
:1038300003F02003002B0ED0104B9B889BB2FB7132
:103840000E4B9B889BB2DBB21846FEF79FFC0B4BDE
:10385000FA7992B29A80094B1B889BB203F040031D
:10386000002B07D0054A054B1B889BB223F0400371
:103870009BB2138000BF0837BD4680BD00480040A2
:1038800080B400AF00BFBD4680BC704780B500AFBC
:10389000154A154B1B6843F0010313601249124B84
:1038A0005A68124B13404B600F4A0F4B1B6823F0B2
:1038B000847323F4803313600B4A0B4B1B6823F48F
:1038C00080231360084A084B5B6823F4FE035360AF
:1038D000054B4FF41F029A6000F078F8044B4FF04C
:1038E00000629A6000BF80BD001002400000FFF837
:1038F00000ED00E080B485B000AF0023FB60002342
:10390000BB6000237B602C4B5B6803F00C03FB6007
:10391000FB68042B07D0082B09D0002B33D1274B91
:10392000274A1A6033E0254B254A1A602FE0224BC4
:103930005B6803F47013BB601F4B5B6803F4803358
:103940007B60BB689B0C0233BB607B68002B06D19D
:10395000BB681C4A02FB03F3184A136017E0164BBE
:103960005B6803F40033002B06D0BB68154A02FBEA
:1039700003F3124A13600AE0BB68114A02FB03F327
:103980000E4A136003E00D4B0D4A1A6000BF0A4B4C
:103990005B681B0903F00F030B4AD35CDBB2FB60CF
:1039A000064B1A68FB6822FA03F3044A136000BF4F
:1039B0001437BD4680BC7047001002402C00002028
:1039C00000127A0000093D003000002080B500AFF1
:1039D00000F002F800BF80BD80B483B000AF0023C8
:1039E0007B6000233B603A4A394B1B6843F48033C9
:1039F0001360374B1B6803F400333B607B68013373
:103A00007B603B68002B03D17B68B3F5A06FF0D1DE
:103A10002F4B1B6803F40033002B02D001233B60C3
:103A200001E000233B603B68012B4BD1294A294B25
:103A30001B6843F010031360264A264B1B6823F0D3
:103A400003031360234A234B1B6843F002031360F4
:103A50001F4A1F4B5B6853601D4A1D4B5B685360D8
:103A60001B4A1B4B5B6843F480635360184A184B36
:103A70005B6823F47C135360154A154B5B6843F471
:103A8000E8135360124A124B1B6843F080731360B3
:103A900000BF0F4B1B6803F00073002BF9D00C4ADA
:103AA0000B4B5B6823F003035360094A084B5B68C8
:103AB00043F00203536000BF054B5B6803F00C0347
:103AC000082BF9D100BF0C37BD4680BC704700BF42
:103AD000001002400020024080B590B000AF0121EC
:103AE0000420FDF789FA01210120FDF785FA4FF442
:103AF0000073BB87032387F83E30182387F83F30D5
:103B000007F13C0319461D48FDF762F801214FF407
:103B10008040FDF771FA07F12C031846FDF712FCFF
:103B20000823FB8607F12C0319461548FDF750FBC7
:103B3000012280211248FDF740FC01211048FDF7C9
:103B40001DFCFA210E48FDF75BFC01210120FDF769
:103B500035FA3B461846FCF7DBFF0A4B3B600A4B45
:103B60007B601023BB6080237B613B46194607487E
:103B7000FCF790FF00BF4037BD4680BD0008014004
:103B800000380140043801405C110020440002402C
:103B900080B584B000AF78601148FDF70DF803469A
:103BA000002B01D0012316E079680E4800F064F87C
:103BB00000210B48FCF7D6FF0A48FCF7C9FA034678
:103BC000FB81FB8919460648FCF7E8FF0121044800
:103BD000FCF7C8FF002318461037BD4680BD00BF64
:103BE000440002405C11002070B500250C4E0D4CC5
:103BF000A41BA410A54209D100F05CFC00250A4ECC
:103C00000A4CA41BA410A54205D170BD56F825305E
:103C100098470135EEE756F8253098470135F2E729
:103C2000DC4D0008DC4D0008DC4D0008E04D0008CC
:103C30000EB44FF4027100B59CB0ADF814106FF0E3
:103C40000041049107914FF6FF711DAB0290069061
:103C5000084853F8042BADF81610006802A9019328
:103C600000F06EF80022029B1A701CB05DF804EBA5
:103C700003B0704740000020034611F8012B03F801
:103C8000012B002AF9D170472DE9F0478E68824652
:103C90009E420C469146984635D88A8912F4906F18
:103CA00031D00223256809696F1A656905EB45055E
:103CB00095FBF3F508F101033B449D4238BF1D46D7
:103CC000530531D5294600F047FB064650B90C2371
:103CD000CAF80030A3894FF0FF3043F04003A381BE
:103CE000BDE8F0873A46216900F0C4FAA38923F4BD
:103CF000906343F08003A38126613E4426604646DC
:103D00006561ED1BA560464528BF464649463246DB
:103D1000206800F0BAFAA36800209B1BA360236808
:103D20001E442660BDE8F0872A4600F073FB064675
:103D30000028E1D12169504600F0C2FAC7E700002F
:103D40002DE9F04F9DB003938B8980461C060D46EC
:103D500016460FD50B696BB9402100F0FDFA2860BB
:103D6000286128B90C23C8F800304FF0FF30C4E0B8
:103D700040236B610023099320238DF829303023E1
:103D80004FF0010B8DF82A3037463C4614F8013BC2
:103D9000002B3CD1B7EB060A0BD0534632462946DE
:103DA0004046FFF771FF013000F0A280099B5344A9
:103DB00009933B78002B00F09B8000234FF0FF32EB
:103DC00004930793059206938DF853301A930522B6
:103DD0002178504800F040FA671C049BD8B9D906F6
:103DE00044BF20228DF853201A0744BF2B228DF8A0
:103DF000532022782A2A16D000210A20079A274623
:103E00003B780134303B092B50D9C9B111E0252B47
:103E1000C0D02746B9E73F4A3C46801A0BFA00F06B
:103E200018430490D3E7039A111D12680391002AE6
:103E300001DB079204E0524243F00203079204932D
:103E40003B782E2B0DD17B78791C2A2B32D1039B0A
:103E500002371A1D1B680392002BB8BF4FF0FF33C7
:103E600005932D4C03223978204600F0F5F938B13E
:103E70004023001B03FA00F0049B01370343049323
:103E80003978062225487E1C8DF8281000F0E4F9C8
:103E9000002835D0224BFBB9039B073323F00703DF
:103EA00008330393099B4B4409936DE700FB0232EF
:103EB0000121A4E700230A24184605930F463A7807
:103EC0000131303A092A03D9002BCAD00590C8E73E
:103ED00004FB00200123F1E703AB00932A46114BBA
:103EE00004A94046AFF30080B0F1FF3F8146D9D12D
:103EF000AB895B063FF539AF09981DB0BDE8F08F7F
:103F000003AB00932A46074B04A9404600F084F80F
:103F1000EAE700BFA84D0008AE4D0008B24D00080A
:103F200000000000893C00082DE9F04791461F463B
:103F30008A680B6906469342B8BF1346C9F8003039
:103F400091F843200C46DDF8208012B10133C9F806
:103F500000302368990642BFD9F800300233C9F80F
:103F60000030256815F0060507D104F1190AE36849
:103F7000D9F800209B1A9D422ADB94F8433022682E
:103F8000003318BF012392062FD404F143023946AF
:103F90003046C047013022D02368E56803F00603AD
:103FA000042B18BF0025D9F800204FF0000908BFE6
:103FB000AD1AA368226908BF25EAE5759342C4BF1C
:103FC0009B1AED181A344D451BD10020BDE8F0872F
:103FD0000123524639463046C047013003D14FF0E5
:103FE000FF30BDE8F0870135C1E73020E11881F8E6
:103FF00043005A1C94F845102244023382F84310BF
:10400000C3E70123224639463046C0470130E6D097
:1040100009F10109D7E700002DE9F04317460A7EB0
:1040200085B06E2A984606460C460C9B01F1430E5D
:1040300000F0BC801AD8632A2ED00AD8002A00F0DB
:10404000C880582A00F08A8004F1420584F8422092
:104050002AE0642A01D0692AF6D121681A6811F091
:10406000800F23D0111D1960136827E0732A00F018
:10407000B48008D86F2A2AD0702AE5D10A6842F0A5
:1040800020020A6003E0752A21D0782ADCD1782248
:104090006F4984F8452064E01A6801F14205111D5A
:1040A0001960136884F842300123A3E011F0400F37
:1040B00002F104011960D7D0B2F90030002B03DA05
:1040C0002D225B4284F8432062490A2217E02068CF
:1040D000196810F0800F03D0081D18600B6806E007
:1040E00010F0400F01F104001860F7D00B886F2A20
:1040F00014BF0A2208225749002084F8430065684B
:10410000002DA560C0F29C80206820F00400206093
:10411000002B3FD1002D40F095807546082A0BD129
:104120002368DA0708D5236962689A42DEBF302324
:1041300005F8013C05F1FF35AEEB05032361CDF831
:1041400000803B4603AA21463046FFF7EDFE0130D2
:1041500055D14FF0FF3005B0BDE8F08381F8452020
:104160003C492268186812F0800F00F104051D60B8
:1041700001D0036802E05506FBD50388D00744BF91
:1041800042F0200222601BB9226822F02002226045
:104190001022B1E77546B3FBF2F002FB1033CB5CA3
:1041A00005F8013D03460028F5D1B7E708681A680D
:1041B00010F0800F496904D0101D18601368196051
:1041C00007E010F0400F02F1040018601368F6D009
:1041D0001980002375462361B1E71A68111D196023
:1041E000156800216268284600F036F808B1401BC7
:1041F000606063682361002384F843309FE723698C
:104200002A4639463046C0470130A2D023689B0772
:1042100007D5002504F11909E368039A9B1A9D420A
:1042200005DBE068039B9842B8BF184693E701237B
:104230004A4639463046C04701308AD00135EBE75F
:10424000002BA7D10B7804F1420584F8423065E7D2
:10425000CA4D0008B94D000810B5C9B202449042D9
:10426000034601D1002010BD1C7801308C42F6D1EC
:10427000184610BD10B5431E0A44914200D110BD2E
:1042800011F8014B03F8014FF7E7884210B501EB35
:10429000020303D8421E99420CD110BD9842F9D2B4
:1042A0008118D21AD34200D110BD13F8014D01F884
:1042B000014DF7E711F8014B02F8014FEBE7000061
:1042C00038B50546002943D051F8043C0C1F002B9B
:1042D000B8BFE41800F0D4F81E4A1368104633B98A
:1042E000636014602846BDE8384000F0CAB8A342B5
:1042F0000BD921686218934201BF1A685B68521893
:10430000226063600460EDE713465A680AB1A24276
:10431000FAD919685818A0420BD1206801445818DE
:1043200082421960DED110685268014419605A60F7
:10433000D8E702D90C232B60D4E7206821188A42E1
:1043400001BF116852680918216062605C60C9E7AA
:1043500038BD00BFC40C002070B5CD1C25F003058E
:1043600008350C2D38BF0C25002D064601DBA9426F
:1043700003D90C233360002070BD00F081F8234A7C
:104380001468214691B9224C23681BB9304600F0CD
:1043900067F820602946304600F062F8431C26D1B9
:1043A0000C233046336000F06CF8E4E70B685B1BCD
:1043B0001AD40B2B0FD90B60CC18CD50304600F01F
:1043C00060F804F10B00231D20F00700C31A1BD076
:1043D0005A42E25070BD8C420BBF63684B68136059
:1043E000636018BF0C46E9E70C464968CAE7C41C7D
:1043F00024F00304A04205D0211A304600F030F822
:104400000130CDD02560D9E770BD00BFC40C0020BD
:10441000C80C0020F8B5074614460E4621B91146CF
:10442000BDE8F840FFF798BF22B9FFF749FF2546DE
:104430002846F8BD00F026F884420FD921463846B8
:10444000FFF78AFF05460028F2D031462246FFF7E3
:1044500011FF31463846FFF733FFE9E73546E7E716
:1044600038B50023054C05460846236000F014F8D3
:10447000431C02D1236803B12B6038BD5C120020BD
:104480007047704751F8040C0028A0F10400BCBF2D
:104490000B58C01870470000044B0246196809B950
:1044A00003491960186802441A607047CC0C002058
:1044B00060120020F8B500BFF8BC08BC9E467047EB
:0C44C000F8B500BFF8BC08BC9E46704771
:1044CC00C4E00000CDE5F2002531306400000000AE
:1044DC00202532642E253032640000002D253264F4
:1044EC002E2530326400000072756E0073746F708C
:1044FC00000000002531642E2530346400000000DB
:10450C0025346400253764002532642E253164007F
:10451C00C3CBC0C2CDCEC500CCE0EAF12E2000004A
:10452C00D2E5EAF3F92E0000C2EEEBFCF22E00000D
:10453C00FDEAF1EF00000000CA2EEFE5F03A202072
:10454C0020200000CDEEECE8EDE0EB3A200000007E
:10455C00F4E8EAF120303A00CDD5373131000000D3
:10456C003E00000063757272656E742076616C7526
:10457C00653A202532642E253032640D0A00000085
:10458C0063757272656E742076616C75653A2D2553
:10459C0032642E253032640D0A0000000000000049
:1045AC00000000007E81A581BD99817E3C7EDBFFF1
:1045BC00C37E3C0000EEFEFE7C38100010387CFE02
:1045CC007C381000003C18FFFF08180010387CFEE7
:1045DC00FE1038000000183C18000000FFFFE7C375
:1045EC00E7FFFFFF003C428181423C00FFC3BD7EE0
:1045FC007EBDC3FF1F070D7CC6C67C00007EC3C3F7
:10460C007E187E180406070464FCF8700C0A0D0B67
:10461C00F9F91F1F00927C44C67C92000000607860
:10462C007E78600000061E7E1E060000187E18189C
:10463C0018187E186666666666006600FFB67636E3
:10464C00363636007EC1DC22221F837E0000007EBF
:10465C007E000000187E18187E1800FF187E1818AF
:10466C001818180018181818187E1800000406FFDF
:10467C0006040000002060FF60200000000000C065
:10468C00C0C0FF0010387C007C38100000001038CF
:10469C007CFE00000000FE7C3810000000000000D2
:1046AC000000000030303030300030006666000012
:1046BC00000000006C6CFE6CFE6C6C00107CD27CFC
:1046CC00867C1000F096FC183E72DE003048307884
:1046DC00CECC78000C0C1800000000001060C0C09C
:1046EC00C0601000100C0606060C1000005438FEBA
:1046FC00385400000018187E181800000000000044
:10470C00000018700000007E000000000000000097
:10471C000000180002060C183060C0007E424242B5
:10472C0042427E000818280808083E007E02027EDD
:10473C0040407E007E02023E02027E004242427EE9
:10474C00020202007E40407E02027E007E40407EDD
:10475C0042427E007E020408101010007E42427E0F
:10476C0042427E007E42427E02027E000030000009
:10477C00003000000030000000302000001C3060D1
:10478C00301C000000007E007E0000000070180C41
:10479C00187000007CC60C18300030007C829AAA7D
:1047AC00AA9E7C007CC6C6FEC6C6C600FC66667C9D
:1047BC006666FC007CC6C0C0C0C67C00FC66666633
:1047CC006666FC00FE6268786862FE00FE626878CD
:1047DC006860F0007CC6C6C0DEC67C00C6C6C6FEDD
:1047EC00C6C6C6003C18181818183C001E0C0C0C39
:1047FC000CCC7800C6CCD8F0D8CCC600F060606089
:10480C006062FE00C6EEFED6C6C6C600C6E6F6DE82
:10481C00CEC6C6007CC6C6C6C6C67C00FC66667C18
:10482C006060F0007CC6C6C6C6C67C0CFC66667CA6
:10483C006666E6007CC6C07C06C67C007E5A1818EC
:10484C0018183C00C6C6C6C6C6C67C00C6C6C6C6B8
:10485C00C66C3800C6C6C6C6D6EEC600C66C38389E
:10486C00386CC6006666663C18183C00FEC60C1810
:10487C003066FE001C18181818181C00C060301880
:10488C000C060200703030303030700000001038F0
:10489C006CC6000000000000000000FF3030180063
:1048AC000000000000007C067EC67E00C0C0FCC676
:1048BC00C6C6FC0000007CC6C0C67C0006067EC6D0
:1048CC00C6C67E0000007CC6FEC07C003C6660F064
:1048DC006060600000007EC6C67E067CC0C0FCC660
:1048EC00C6C6C6001800381818183C00000C001C6E
:1048FC000C0CCC78C0C0C6D8F0D8C6003818181824
:10490C0018183C000000EEFED6C6C6000000FCC61F
:10491C00C6C6C60000007CC6C6C67C000000FCC62D
:10492C00C6FCC0C000007EC6C67E06060000DE7651
:10493C006060600000007CC07C067C0018187E184B
:10494C0018181E000000C6C6C6C67E000000C6C6EB
:10495C00C66C38000000C6C6D6FEC6000000C66C89
:10496C00386CC6000000C6C6C67E067C0000FE0C75
:10497C001860FE000E18187018180E001818180081
:10498C0018181800E030301C3030E0000000709A2D
:10499C000E0000000000183C66FF000022882288F0
:1049AC002288228855AA55AA55AA55AADB77DBEE90
:1049BC00DB77DBEE10101010101010101010101010
:1049CC00F01010101010F010F0101010141414142B
:1049DC00F414141400000000FC1414140000F01063
:1049EC00F01010101414F404F414141414141414FB
:1049FC00141414140000FC04F41414141414F4040B
:104A0C00FC00000014141414FC0000001010F01032
:104A1C00F000000000000000F0101010101010103A
:104A2C001F00000010101010FF000000000000001C
:104A3C00FF101010101010101F10101000000000AC
:104A4C00FF00000010101010FF10101010101F109D
:104A5C001F10101014141414171414141414171009
:104A6C001F00000000001F10171414141414F7007A
:104A7C00FF0000000000FF00F714141414141710AA
:104A8C00171414140000FF00FF0000001414F700AA
:104A9C00F71414141010FF00FF0000001414141469
:104AAC00FF0000000000FF00FF10101000000000CD
:104ABC00FF141414141414141F00000010101F10F1
:104ACC001F00000000001F101F101010000000003D
:104ADC001F14141414141414FF1414141010FF10B5
:104AEC00FF10101010101010F0000000000000005B
:104AFC001F101010FFFFFFFFFFFFFFFF0000000063
:104B0C00FFFFFFFFF0F0F0F0F0F0F0F00F0F0F0FE1
:104B1C000F0F0F0FFFFFFFFF000000000000FE0053
:104B2C00FE00FE0010107C1010007C00603018306D
:104B3C0060007800183060301800780008141010ED
:104B4C00101010101010101010502000303000FCFD
:104B5C000030300000006498006498006090906011
:104B6C0000000000000000303000000000000000D9
:104B7C00300000001F10109050301000A0D090900A
:104B8C009000000060902040F000000000003C3CD1
:104B9C003C3C000000000000000000000E1E3666C9
:104BAC00FEC6C600FCC0C0FCC6C6FC00F8CCCCFCE3
:104BBC00C6C6FC00FCC0C0C0C0C0C0007E66666635
:104BCC006666FFC3FCC0C0F8C0C0FE00DBDB7E180D
:104BDC007EDBDB003C66063C06C67C00C6C6CEDE31
:104BEC00F6E6C600D6C6CEDEF6E6C600C6CCD8F8CB
:104BFC00CCC6C600060E1E3666C6C600C6EEFED66F
:104C0C00C6C6C600C6C6C6FEC6C6C6007CC6C6C6D6
:104C1C00C6C67C00FEC6C6C6C6C6C600FCC6C6FC5A
:104C2C00C0C0C0007CC6C0C0C0C67C00FC303030E8
:104C3C0030303000C6C6C67E06C67C00187EDBDB74
:104C4C00DB7E1800C3663C183C66C300CCCCCCCCD5
:104C5C00CCCCFE06C6C6C67E06060600D6D6D6D672
:104C6C00D6D6FE00D6D6D6D6D6D6FF03F030303EFA
:104C7C0033333E00C2C2C2F2DADAF200C0C0C0FC6A
:104C8C00C6C6FC007CC6061E06C67C00CEDBDBFB63
:104C9C00DBDBCE007EC6C67E3666C6000000780C16
:104CAC007CCC7E000478C0F8CCCC78000000F8CC2A
:104CBC00F8C6FC000000FCC0C0C0C00000007E664E
:104CCC006666FFC3000078CCFCC07C000000DB7E75
:104CDC00187EDB00000078CC18CC78000000CCCC1F
:104CEC00DCECCC003000CCCCDCECCC000000CCD824
:104CFC00F0CCCC0000000E1E3666C6000000C6EEDE
:104D0C00D6C6C6000000CCCCFCCCCC00000078CCC5
:104D1C00CCCC78000000FCCCCCCCCC000000F8CC87
:104D2C00CCF8C0C0000078CCC0CC78000000FC30BF
:104D3C00303030000000CCCC7C0CCC7800187EDB02
:104D4C00DB7E18180000C66C386CC6000000CCCC9A
:104D5C00CCCCFE060000CCCC7C0C0C000000D6D6D3
:104D6C00D6D6FE000000D6D6D6D6FF030000F03013
:104D7C003E333E000000C2C2F2DAF2000000C0C0B6
:104D8C00F8CCF80000007CC61EC67C000000CEDB10
:104D9C00FBDBCE0000007CCC7C6CCC00232D302BBC
:104DAC002000686C4C006566674546470030313220
:104DBC003334353637383941424344454600303177
:104DCC0032333435363738396162636465660000D6
:044DDC003501000895
:044DE00011010008B5
:104DE400000000000102030401020304060708098D
:104DF400020406080100000000000000000000405A
:104E040000000000000059407376010000A24A042B
:104E14000000000000000000010203040607080966
:104E2400440000200000000000000000000000001A
:104E3400000000000000000000000000000000006E
:104E4400000000000000000000000000000000005E
:104E5400000000000000000000000000000000004E
:104E6400000000000000000000000000000000003E
:104E7400000000000000000000000000000000002E
:044E8400000000002A
:0400000508003709AF
:00000001FF
